:100000000C94B4010C94DC010C94DC010C94DC0124
:100010000C94DC010C94DC010C94DC010C94DC01EC
:100020000C94DC010C94DC010C948E0D0C94000EED
:100030000C94DC010C94DC010C94DC010C94DC01CC
:100040000C94DC010C94DC010C94DC010C94DC01BC
:100050000C94DC010C94DC010C94DC010C94B011C8
:100060000C94DC010C9464100C943E100C94DC0194
:100070000C94DC010C94DC010C94DC010C94DC018C
:100080000C94DC010C94DC010C94DC010C94DC017C
:100090000C94DC010C94DC010C94DC010C94DC016C
:1000A0000C94DC010C94DC010C94DC019B169E1674
:1000B0008D1691169516BF16BF16BF16A216A61658
:1000C000AA16B016B416BF16BA166E616E00696E27
:1000D000660000407A10F35A00A0724E1809001012
:1000E000A5D4E80000E87648170000E40B540200AD
:1000F00000CA9A3B000000E1F505000080969800D8
:10010000000040420F000000A08601000000102700
:1001100000000000E8030000000064000000000090
:100120000A00000000000100000000002C76D888C2
:10013000DC674F0823DFC1DFAE59E1B1B796E5E3D5
:10014000E453C63AE651997696E8E6C28426EB89EE
:100150008C9B62ED407C6FFCEFBC9C9F40F2BAA58B
:100160006FA5F490055A2AF75C936B6CF9676DC123
:100170001BFCE0E40D47FEF520E6B500D0ED902E27
:100180000300943577050080841E080000204E0A85
:10019000000000C80C333333330F986E12831141C3
:1001A000EF8D2114893BE65516CFFEE6DB18D1848E
:1001B0004B381BF77C1D901DA4BBE42420328472B5
:1001C0005E228100C9F124ECA1E53D276364696EDC
:1001D0006F70737578585B00070605040100080A04
:1001E0000B0C0D0973746172740A006F6B0A004B7B
:1001F000256400572564006F6B0A00522564006F68
:100200006B0A00452564006F6B0A00432564006F8C
:100210006B0A004625642025640025646F6B0A0084
:1002200025646F6B0A0025646F6B0A006F6B0A0010
:100230005325640025646F6B0A005025640058251F
:1002400064006F6B0A00552564006F6B0A004D2532
:1002500064006F6B0A004C2564006F6B0A00542524
:1002600064006F6B0A006F6B0A00080B0002020249
:100270000100090400000102020000052400100131
:1002800005240101010424020605240600010705D6
:10029000810310004009040100020A000000070564
:1002A0000202400000070583024000000403090425
:1002B00012010002EF020140992C0400000101022A
:1002C0000301556E6B6E6F776E004F726967696ED2
:1002D000616C205072757361206933204D4B33205F
:1002E0004D756C7469204D6174657269616C203262
:1002F0002E30207570677261646500000000002375
:1003000000260029002C002F000404040404030428
:1003100005020202020403020202020606060606A3
:100320000604040202020404040802011040804092
:10033000102040804080080204018040201002010B
:10034000108010204040200000000200090F000033
:10035000030401000C000000000000000000000089
:100360000000000000005C2211241FBECFEFDAE085
:10037000DEBFCDBF22E0AEE4B1E001C01D92AF3AD6
:10038000B207E1F711E0A0E0B1E0E0E0F3E502C080
:1003900005900D92AE34B107D9F711E0C4EBD1E06E
:1003A00004C02197FE010E947329C33BD107C9F7FE
:1003B0000E94D31A0C947E290C9400000F931F9373
:1003C0009CE59CBD1DBC813039F020F0823029F4C1
:1003D0002F9803C0469801C05F986EBD0DB407FE0C
:1003E000FDCF9EB51EBC0DB407FEFDCF9EB51EBC55
:1003F0000DB407FEFDCF9EB51EBC0DB407FEFDCFAC
:100400009EB51EBC0DB407FEFDCF9EB5813039F000
:1004100020F0823029F42F9A03C0469A01C05F9AD7
:100420009CE59CBD1DBC813039F020F0823029F460
:100430002F9803C0469801C05F981EBC0DB407FEFC
:10044000FDCF9EB51EBC0DB407FEFDCF0EB510E06E
:1004500020E030E0322F212F102F00271EBC0DB4DA
:1004600007FEFDCF6EB5062B322F212F102F002750
:100470001EBC0DB407FEFDCF6EB5062B322F212F0B
:10048000102F00271EBC0DB407FEFDCF6EB5062B46
:10049000813039F020F0823029F42F9A03C0469A37
:1004A00001C05F9A4115510529F0FA0100831183BB
:1004B00022833383892F1F910F910895CF92DF926A
:1004C000EF92FF929CE59CBD1DBC813039F020F07D
:1004D000823029F42F9803C0469801C05F986EBD02
:1004E0000DB407FEFDCF9EB5C52EDD24EE24FF24FE
:1004F000CEBC0DB407FEFDCF9EB56A01EE24FF24ED
:10050000CEBC0DB407FEFDCF9EB5C32ED42EE52E76
:10051000FF24CEBC0DB407FEFDCF9EB52EBD0DB49D
:1005200007FEFDCF9EB5813039F020F0823029F4EE
:100530002F9A03C0469A01C05F9AFF90EF90DF9018
:10054000CF9008959C0188E03695279521153105B7
:1005500011F08150C9F708951F93CF93DF93182F9F
:10056000D42FC22F262F2F70822F90E0A0E0B0E072
:10057000B82FAA27992788279C01AD01C03280F4A3
:10058000236D436050616CEE812F0E945E02DF712B
:100590008D2F90E0A0E0B0E0AC01BD016F6012C013
:1005A000236D416050616CEE812F0E945E02D695F2
:1005B000DF718D2F90E0A0E0B0E0AC01BD016F6075
:1005C000C695CF718C2F90E0D82FCC27CE01DD0FB0
:1005D000AA0BBB0B9A01AB01282B392B4A2B5B2BA7
:1005E00060E9812F0E945E0280E0DF91CF911F9130
:1005F0000895EF92FF920F931F93CF93DF930E9482
:10060000FA110E947516019729F00E947516892B20
:1006100089F519C008EB1BE0C0E0D0E09BEDE92EA6
:100620009EE2F92E0E943A14C7010197F1F70E9449
:100630007516892B09F421960150110931F3C23343
:10064000D10584F3E2CF0E94FF1108EB1BE0C0E06C
:10065000D0E08BEDE82E8EE2F82E0E943A14C7010E
:100660000197F1F70E947516019709F42196015040
:10067000110911F480E011C0C233D10574F30E9456
:10068000FA11C8E5D2E00BED1EE20E943A14C8014F
:100690000197F1F72197C9F781E0DF91CF911F9181
:1006A0000F91FF90EF900895EAEDF1E0E491209131
:1006B0007B00E3FB882780F990E035E0880F991FE5
:1006C0003A95E1F7922F9F7D892B80937B00E7700D
:1006D000E064E0937C0080917A00806480937A00EB
:1006E00080917A0086FDFCCF80917800209179007E
:1006F00090E0922B8233910564F09C0121553109E1
:100700002331310540F0815A9109439730F080E060
:10071000089581E0089582E0089584E00895CF93DC
:100720000E945403C82F882321F00E945403811192
:10073000FCCF8C2FCF910895CF92DF92FF920F9331
:100740001F93CF93DF9300D000D0CDB7DEB700E08A
:1007500010E0F12CCC24C394D12CAE014F5F5F4F3D
:1007600061E0802F0E94DE0189819A81AB81BC818A
:1007700087709927AA27BB27892B8A2B8B2B39F0C7
:10078000C601002E01C0880F0A94EAF7F80E0F5F29
:100790001F4F0330110509F78F2D0F900F900F9009
:1007A0000F90DF91CF911F910F91FF90DF90CF902D
:1007B0000895CF93DF9300D000D0CDB7DEB7198274
:1007C0001A821B821C82AE014F5F5F4F6FE60E9450
:1007D000DE0189819A8193700F900F900F900F9096
:1007E000DF91CF9108951F93CF93DF93C82FD62F1A
:1007F000142F813031F028F0823041F480E190E014
:1008000002C082E090E00E94A20201C080E1212F9C
:100810004D2F682F8C2F0E94AC02D82F81112DC034
:1008200020E030E0A90161E98C2F0E945E02C33014
:1008300030F4EC2FF0E0E15EFE4F208101C024E0B7
:10084000822F220F990BAA0BBB0BAC013327222757
:100850006DEE8C2F0E945E0222EC31E040E050E011
:1008600064E98C2F0E945E0220E831E340E050E012
:1008700060E88C2F0E945E0201C0DFEF8D2FDF91B8
:10088000CF911F9108951F93CF93DF93C82FD62F39
:10089000142F813031F028F0823041F480E190E073
:1008A00002C082E090E00E94A20201C080E1212FFC
:1008B0004D2F682F8C2F0E94AC02D82F81112FC092
:1008C00020E030E0A90161E98C2F0E945E0220E067
:1008D00030E044E050E06DEE8C2F0E945E0220E09C
:1008E00030E0A90164E98C2F0E945E0224E030E030
:1008F00040E050E060E88C2F0E945E0222ED36E07E
:1009000046E050E060EF8C2F0E945E0228EC30E061
:1009100040E050E063E98C2F0E945E0201C0DFEFEF
:100920008D2FDF91CF911F910895CF93DF93CDB796
:10093000DEB72F970FB6F894DEBF0FBECDBF209164
:100940001001309111014091120129833A834B83A8
:100950002091130130911401409115012C833D83A6
:100960004E832091160130911701409118012F8379
:10097000388749872091190130911A0140911B0154
:100980002A873B874C8720911C0130911D014091A3
:100990001E012D873E874F876130E1F098F062306D
:1009A00061F5282F30E0FE01E20FF31F44816285DC
:1009B0002F960FB6F894DEBF0FBECDBFDF91CF915B
:1009C0000C944304282F30E0FE01E20FF31FDF01F7
:1009D000458507C0282F30E0FE01E20FF31FDF013D
:1009E000418117966C912F960FB6F894DEBF0FBE1B
:1009F000CDBFDF91CF910C94F30380E02F960FB61B
:100A0000F894DEBF0FBECDBFDF91CF910895CF9395
:100A10006091000180E00E9495040E94A3150E944D
:100A2000F902C82F0E949215809100010E941016B1
:100A30008C2FCF9108951F93CF93DF93182F3E9A59
:100A4000579A279A469A5F9A2F9A549A249A569AB6
:100A50005C982C985E98682F80E00E94950421E0B5
:100A600030E0811102C020E030E0CC27DD27C21B3E
:100A7000D30B612F81E00E949504811102C020E018
:100A800001C02EEFC20F612F82E00E9495048111F8
:100A90008CEF8C0FDF91CF911F91089520915E0113
:100AA00030915F01C90184709927AC015695479533
:100AB000C901807199279695879596958795842B7E
:100AC0002170822B08952E98000020E130E040E054
:100AD00050E8BC0164237523672B11F02D9A01C0E7
:100AE0002D98479A00004798000056954795215049
:100AF000310979F72E9A000090935F0180935E018F
:100B0000089580915E0190915F018A620E94630561
:100B10006AE070E080E090E00E94A11080915E01A8
:100B200090915F01857D0E946305809100010E9484
:100B30001B050E94FE122091600160E070E08DE9CB
:100B40009EEFAC01249FC001259F900D11240E94AF
:100B50002E1280910F01882329F08091A701811125
:100B60000C94F5120895109260011092A6018091E4
:100B70005E0190915F018A620E9463056AE070E005
:100B800080E090E00E94A11080915E0190915F0151
:100B9000857D0E946305809100010E941B050E94D3
:100BA000781380910F01882329F08091A70181118A
:100BB0000C94F5120895282F2270922F990F282F48
:100BC0002470220F220F292B8170282B022E000C5B
:100BD000330B80915E0190915F018A7E822B932B73
:100BE0000C94630520915E0130915F012F733327D0
:100BF000582F4427242B352B88279370969587955B
:100C000096958795822B932B0C946305CF93DF9356
:100C1000EC01809167019091680124E030E0281B8D
:100C2000390B220F331F82E090E002C0880F991F1A
:100C30002A95E2F70E94F205C0936701D0936801FC
:100C4000CE01C530D10514F084E090E06C2F0E94F5
:100C5000AD1580E090E00E94F205809167019091CF
:100C6000680124E030E0281B390B220F331F81E09C
:100C700090E002C0880F991F2A95E2F7DF91CF918B
:100C80000C94F2058F929F92AF92BF92CF92DF9217
:100C9000EF92FF920F931F93CF93DF93882E0E94C2
:100CA000A3150E94FF11809100014FE061E08130A7
:100CB00099F480E00E94F30300E010E0912CD0E072
:100CC000C0E034E0C32ED12C42E0A42EB12C5BE76F
:100CD000E52E5EE3F52E1CC080E00E944304ECCFBD
:100CE0000C3D25E01207E8F40E943A14CF5FC333AD
:100CF000D0F40E947516019709F4939439E03915E0
:100D000080F1882041F0C7010197F1F70F5F1F4F75
:100D10008110E6CFE9CF0E9454038823A1F3DB3092
:100D200090F3C0E02CC0809167019091680196011A
:100D3000281B390BC901880F991F950102C0220F8A
:100D4000331F8A95E2F7C9010E94F205C53688F281
:100D500080E090E00E94F205DC3008F4DF5FC0E044
:100D6000C8CF0E94FA11C2E6D2E00BED1EE20E944B
:100D70003A14C8010197F1F72197C9F7C1E08091B2
:100D800000010E9410160E949215809167019091B7
:100D9000680124E030E0281B390B220F331F81E06B
:100DA00090E002C0880F991F2A95E2F70E94F20591
:100DB0008C2FDF91CF911F910F91FF90EF90DF90DB
:100DC000CF90BF90AF909F908F90089580916701D2
:100DD0009091680124E030E0281B390B220F331F6B
:100DE00081E090E002C0880F991F2A95E2F70E94E7
:100DF000F2050E945403857031F164EF71E080E0E8
:100E000090E00E94A1100E945403813019F08430B8
:100E100051F013C080916701909168018530910570
:100E200064F4019608C080916701909168011816DA
:100E300019061CF401970E94060664EF71E080E039
:100E400090E00E94A1108091670190916801059740
:100E5000A1F482E090E00E94F20562E370E080E09D
:100E600090E00E94A11081E090E00E94F20562E310
:100E700070E080E090E00C94A11008958FEF93E073
:100E80000E94F2056CE271E080E090E00E94A11007
:100E900080E090E00E94F2056CE271E080E090E07A
:100EA0000C94A1100F931F93CF93DF930E943E07E2
:100EB0000E943E070E943E070E943F148F3F2FEF83
:100EC0009207B1F0EC0121966C2F61500C2F01704C
:100ED00010E0C801815D9C4F0E94B5276D2F6150C5
:100EE0008EE293E0DF91CF911F910F910C94B52783
:100EF000DF91CF911F910F9108958F929F92AF92A2
:100F0000BF92CF92DF92EF92FF920F931F93CF93F6
:100F1000DF936091000180E00E9495040E94A31578
:100F20000E947516892B61F0C3E00E9438150E945B
:100F30009C038823B9F00E947516019799F420C18B
:100F40000E94F902882371F0DF91CF911F910F91D8
:100F5000FF90EF90DF90CF90BF90AF909F908F90D9
:100F60000C949215C4E6D0E00BE11EE40E943A1402
:100F7000C8010197F1F72197C9F70E9475160197EB
:100F8000A9F00E947516019709F0D8C00E94921529
:100F9000C0E004E010E0AA24A394B12C52E0C52ED6
:100FA000D12C6BEE862E65E5962E6FC0C6E0D0E0A4
:100FB0007BE7C72E7EE3D72EEBEDAE2EEEE2BE2E04
:100FC0000E947516019749F064E670E080E090E0B9
:100FD0000E94A1102197A1F7D4CF0E94FF1106E92A
:100FE00010E00E943A14C6010197F1F7015011096F
:100FF000C1F70E94FA1100EA1FE0F12C0E943A1496
:10100000C5010197F1F70E947516892B09F4F39435
:1010100023E62F15C8F20150110981F7D5CF9501AC
:1010200002C0220F331F8A95E2F7C9010E94F20520
:1010300064E670E080E090E00E94A110809167017A
:10104000909168019801281B390BC901880F991FDD
:10105000960102C0220F331F8A95E2F7C9010E9450
:10106000F20564E670E080E090E00E94A11064E682
:1010700070E080E090E00E94A1100E945403823052
:10108000A9F1843011F18130C9F180E090E00E9433
:10109000F20564E670E080E090E00E94A11080918B
:1010A0006701909168019801281B390BC901880FCD
:1010B000991FC111B4CF960102C0220F331F8A9528
:1010C000E2F7C9010E94F205D2CF0E94A3150E9447
:1010D000FA1198ECE92EF12C0E943A14C401019700
:1010E000F1F731E0E31AF108B9F705C00E94A31542
:1010F0000E94F902C82F0E949215C7CF0E94A31523
:101100000E94F902C82F0E949215CC2309F4BDCF8A
:10111000809167019091680124E030E0281B390B31
:10112000220F331F81E090E002C0880F991F2A959B
:10113000E2F70E94F2050E94A3150DC00E94FA1169
:10114000C2ECD1E00BE11EE40E943A14C801019701
:10115000F1F72197C9F70E949215809100010E9432
:10116000101610926601DF91CF911F910F91FF90A1
:10117000EF90DF90CF90BF90AF909F908F900895A9
:10118000C15019F40E943E07FDCF0E9452070E94F1
:101190008105CBCECF93DF9380E090E00E94F205F3
:1011A00060E273E080E090E00E94A110C4E0D0E033
:1011B00080916701909168019E01281B390B220FD5
:1011C000331F81E090E002C0880F991F2A95E2F753
:1011D0000E94F20564E670E080E090E00E94A110B9
:1011E0008091670190916801C81BD90BCC0FDD1F5E
:1011F00082E090E002C0880F991FCA95E2F70E9432
:10120000F20564E670E080E090E00E94A11060E2E8
:1012100073E080E090E0DF91CF910C94A11080E02A
:1012200090E00E94F20560E273E080E090E00E94AE
:10123000A110809167019091680124E030E0281BA3
:10124000390B220F331F82E090E002C0880F991FF4
:101250002A95E2F70E94F20560E273E080E090E0F8
:101260000C94A1104F925F926F927F929F92AF92D7
:10127000BF92CF92DF92EF92FF920F931F93CF9383
:10128000DF931F92CDB7DEB780916701F3E0EF2EB9
:101290008F70D82E0E947814182F89830E9495147D
:1012A0001130A1F028F0123019F01330D9F40EC02B
:1012B0008C010F5F1F4F003223E01207B0F0CE0108
:1012C00001960E9468140FE113E00FC08C010150D9
:1012D0001109003233E0130740F0CE0101960E945D
:1012E000681401C0198200E010E089810E94DF14B7
:1012F0008823E9F08981FD2C40E1849FF00C1124C2
:10130000025F1F4F6F2DC8010E94B527C8010E94C0
:10131000A727F81661F0CE0101960E946814898112
:101320000E94DF14882319F0EA94E110B3CF0E94E1
:10133000A3156091000180E00E9495040E94FF11B6
:101340000CED15E0EBEEEE2EE5E5FE2E0E943A14D4
:10135000C7010197F1F70E947516892B19F4015006
:101360001109A1F70E947516892B09F03BC006E010
:1013700010E0E12CF12C6BE6A62E67E1B62E7BE7A0
:10138000672E7EE3772E0E947516892B41F50E9409
:10139000FA1159ECC52ED12C0E943A14C5010197BF
:1013A000F1F751E0C51AD108B9F70E94FF1144EFD7
:1013B000C42EDD24D3940E943A14C3010197F1F79F
:1013C0000E947516019719F48FEFE81AF80A94E64F
:1013D000E916F10424F421E0C21AD10861F70150A2
:1013E000110989F60E947516892B69F00E94F8147C
:1013F0006C0133E0932E04E911E15C0130E2A31AA1
:1014000033E0B30A7BC00E94921510E02BEEC22E8F
:1014100025E5D22E111103C00E940F0902C00E94BF
:10142000CA080E9454038230B1F0843019F0813030
:1014300089F719C00E94A3150E94FF1198ECE92EAC
:10144000F12C0E943A14C6010197F1F741E0E41A29
:10145000F108B9F705C00E94A3150E94F902182FE0
:101460000E949215D7CF0E94A3150E94F902182F4F
:101470000E949215112381F20E94A3150E94FF1170
:101480000CED15E08BEEE82E85E5F82E0E943A145F
:10149000C7010197F1F70E947516892B09F0A6CFB5
:1014A0000150110999F7A2CF0E943A140E948B11A2
:1014B0009801012E000C440B550B420E531E641E66
:1014C000751EA3019201261B370B480B590BDA013D
:1014D000C9013FEFE31AF30ACE14DF04C1F40E94FE
:1014E0009C03882309F45FC09A94992009F458C09A
:1014F0000E9452070E9481050E9438150E94FF1128
:10150000E12CF12C84E991E1A0E0B0E0E5CF0E946C
:1015100096100E948B112B013C0150EAE5165FE00A
:10152000F50618F509328AE018071CF00450110975
:1015300004C0053195E019071CF00250110904C0E0
:101540000B3822E012071CF00150110904C00F35BE
:1015500031E0130754F080910001813031F4809123
:101560006101882311F001501109AE14BF0430F459
:1015700008324AE0140714F4065F1F4F80E591E03B
:101580000E94BE238134910509F08ECF81E08093C3
:101590006101809100010E9410160E94921503C003
:1015A0000E943E07FDCF809100010E9410160E940C
:1015B000921581E0809366010F90DF91CF911F918A
:1015C0000F91FF90EF90DF90CF90BF90AF909F90E2
:1015D0007F906F905F904F9008958AEA92E00E940A
:1015E000F2056CE271E080E090E00E94A11080E0E2
:1015F00090E00E94F2056CE271E080E090E00C94D3
:10160000A110CF93DF93880F991FC1E0D0E002C0F3
:10161000CC0FDD1F8A95E2F7CE010E94F20568E249
:1016200070E080E090E00E94A11080E090E00E94D5
:10163000F20564E170E080E090E00E94A110CE012C
:101640000E94F20568E270E080E090E00E94A11044
:1016500080E090E00E94F2056AE070E080E090E0B7
:10166000DF91CF910C94A1104091A2015091A30160
:101670002091A0013091A10142175307B4F4909139
:10168000E8009570E1F39091E80092FD19C0809315
:10169000F1008091A2019091A30101968F73992787
:1016A000892B19F48EEF8093E8008091A20190912C
:1016B000A30101969093A3018093A20181E0089574
:1016C00080E00895DF92EF92FF920F931F93CF93E4
:1016D000DF93D82EF92EE42E062F10E0C8010196D4
:1016E000880F0E94340B83E00E94340BCD2DDF2D38
:1016F0000C0F1D1FC017D10789F0E7FE03C0FE01C4
:10170000849101C088810E94340BF82E80E00E94F1
:10171000340B8F2121968111EDCF01C081E0DF9143
:10172000CF911F910F91FF90EF90DF900895DF927E
:10173000EF92FF920F931F93CF93DF93D82E8A01DE
:101740007B01E40EF51EEB01CE15DF0571F0D7FE2F
:1017500003C0FE01849101C088810E94340B219650
:101760008111F2CF8FEF9FEF01C0C801DF91CF91C0
:101770001F910F91FF90EF90DF900895615030F02E
:101780002091F100FC0120830196F8CF289884E68F
:101790008093AE010895CF92DF92EF92FF920F9364
:1017A0001F93CF93DF936C017A018B01C0E0D0E0EF
:1017B000CE15DF0581F0D8016D918D01D601ED9137
:1017C000FC910190F081E02DC6010995892B11F063
:1017D0002196EECF7E01C701DF91CF911F910F912E
:1017E000FF90EF90DF90CF900895FC01538D448DD2
:1017F000252F30E0842F90E0821B930B541710F0BC
:10180000CF96089501970895FC01918D828D9817C8
:1018100061F0828DDF01A80FB11D5D968C91928DD4
:101820009F5F9F73928F90E008958FEF9FEF0895D1
:10183000FC01918D828D981731F0828DE80FF11D9A
:10184000858D90E008958FEF9FEF0895FC01918DB5
:10185000228D892F90E0805C9F4F821B91098F73AE
:101860009927089580EB91E00E94260C21E0892BB6
:1018700009F420E0822F0895FC01848DDF01A80F78
:10188000B11DA35ABF4F2C91848D90E001968F73A8
:101890009927848FA689B7892C93A089B1898C91C7
:1018A00082748C93938D848D981306C00288F3897B
:1018B000E02D80818F7D80830895EF92FF920F93BA
:1018C0001F93CF93DF93EC0181E0888F9B8D8C8DEC
:1018D000981305C0E889F989808185FD26C0F62E18
:1018E0000B8D10E00F5F1F4F0F731127E02E8C8DB3
:1018F000E8120CC00FB607FCFACFE889F98980819D
:1019000085FFF5CFCE010E943C0CF1CF8B8DFE01FF
:10191000E80FF11DE35AFF4FF0829FB7F8940B8F49
:10192000EA89FB898081806209C09FB7F894EE89BB
:10193000FF896083E889F9898081827480839FBFF1
:1019400081E090E0DF91CF911F910F91FF90EF9098
:101950000895CF93DF93EC01888D8823C9F0EA893D
:10196000FB89808185FD05C0A889B9898C9186FD98
:101970000FC00FB607FCF5CF808185FFF2CFA88995
:10198000B9898C9185FFEDCFCE010E943C0CE7CF49
:10199000DF91CF91089580E090E0892B29F00E949B
:1019A000320C81110C9400000895CF93DF931F92A5
:1019B000CDB7DEB76983DC01ED91FC910280F38144
:1019C000E02D41E050E0BE016F5F7F4F09950F9021
:1019D000DF91CF91089583E08093E9008091F20038
:1019E000882319F08AE38093E8000895FC01848538
:1019F000958597FD0BC09FB7F89482E08093E9002E
:101A00008091F2009FBF90E0019608959FB7F894EF
:101A100082E08093E9008091F2009FBF90E00895FA
:101A2000089580E090E008950E9479290F931F9314
:101A3000CF93DF931F92CDB7DEB782E0898342E474
:101A400050E06AE672E080E80E94970B0E9410174F
:101A5000DC0112960D911C9113970115110589F067
:101A6000D801ED91FC910280F381E02DBE016F5F02
:101A70007F4FC801099597FD04C0F80100851185C5
:101A8000ECCF89810F90DF91CF911F910F91089535
:101A90000E94FF1690E008950F931F93CF93DF935A
:101AA0001F92CDB7DEB78C01FC018485958597FF29
:101AB0000EC0CE0101960E94D116019719F48981BA
:101AC00090E002C08FEF9FEFF80195878487F801BF
:101AD000848595850F90DF91CF911F910F91089587
:101AE000CF93DF931F92CDB7DEB7FC018485958538
:101AF00097FD05C02FEF3FEF358724870BC0CE0140
:101B000001960E94D116019719F4898190E002C0D4
:101B10008FEF9FEF0F90DF91CF9108951F920F925B
:101B20000FB60F9211248F939F938091E1009091B3
:101B3000E100937F9093E10083FF0FC01092E900D2
:101B400091E09093EB001092EC0092E39093ED0003
:101B50001092AF0198E09093F00082FF20C093E0D4
:101B60009093E9009091F200992319F09AE39093F1
:101B7000E8009091A501992339F09091A501915029
:101B80009093A501992389F19091AE01992339F0A1
:101B90009091AE0191509093AE01992341F184FF51
:101BA00010C08091E2008E7E81608093E20080917F
:101BB000E1008F7E8093E10080914E018E7E8061F6
:101BC00011C080FF16C08091E2008E7E80618093FC
:101BD000E2008091E1008E7E8093E10080914E01D1
:101BE0008E7E816080934E0104C05D9ACDCF289A8D
:101BF000D6CF9F918F910F900FBE0F901F90189589
:101C00001F920F920FB60F921124CF92DF92EF9294
:101C1000FF920F931F932F933F934F935F936F9375
:101C20007F938F939F93AF93BF93EF93FF93CF9344
:101C3000DF93CDB7DEB76C97DEBFCDBF1092E90062
:101C40008091E80083FFFBC168E0CE0145960E94C9
:101C5000BE0B82EF8093E8008D8987FF05C09091CD
:101C6000E80090FFFCCF03C09EEF9093E800982F10
:101C7000907609F0C6C09E894F89588D2F89F88CBF
:101C800091110CC0803829F480914F018093F100AC
:101C900002C01092F1001092F10045C1913051F450
:101CA000811141C14130510509F03DC180914F0181
:101CB0008D7F0BC0933061F4811135C141305105E6
:101CC00009F031C180914F01826080934F012BC197
:101CD000953049F48091E80080FFFCCF822F806826
:101CE0008093E30020C1963009F05EC00B8D1C8DFF
:101CF00022E01092E9001092A3011092A201F212C8
:101D000032C01092A1011092A0010E94160D99E01C
:101D1000BE016F5F7F4FDB01E92F1D92EA95E9F766
:101D20009983FA8291E09E8390EA98879AEF998747
:101D30002091A2013091A301275F3F4F3C832B8369
:101D40008D831092E9001092A3011092A2011093CA
:101D5000A1010093A00149E050E080E00E94970BB0
:101D60000E94160DE0C01093A1010093A0010E94F3
:101D70001017DC0112960D911C9113970115110596
:101D800009F4BBC0D801ED91FC910480F581E02DF0
:101D9000BE016B5E7F4FC8010995009709F0C7C06F
:101DA000F80100851185EACF973009F445C19830D4
:101DB00021F481E08093F100B6C0993009F0B3C0FE
:101DC000837009F039C1E3E2F1E081E031E096E3AC
:101DD0002081211109C08EE78093EA001092EA0069
:101DE0008F898093AF019FC08093E9003093EB000F
:101DF00021912093EC009093ED008F5F873041F7A5
:101E0000EACF8B8D9C8D1092E9001092A301109265
:101E1000A2019093A1018093A001898D811153C0EB
:101E20008E899D89913A49F4813209F005C147E0D4
:101E300050E067E071E080E0BBC0913209F0FCC087
:101E4000833269F48F89988DA0E0B0E0809303011C
:101E500090930401A0930501B093060164C0803201
:101E600069F48091E80082FFFCCF67E087E091E0B1
:101E70000E94BE0B8BEF8093E80055C0823209F0C0
:101E800052C08F8980930E01EEEFFFE78591949108
:101E90008B3F9C4D19F0E0E0F8E002C0EEEFFAE075
:101EA0008091070190910801A0910901B0910A0168
:101EB000803B9440A105B10509F09EC080910E01C0
:101EC00080FF79C099C00E941017FC010281138124
:101ED0000115110509F4B0C0D801ED91FC910190F4
:101EE000F081E02DBE016B5E7F4FC8010995811125
:101EF0001AC0F80100851185EBCFF1E0FF1609F457
:101F00004EC0F3E0FF1298C08F89882309F44AC0BD
:101F1000823089F440E860E38AEC92E00E94620B30
:101F2000882309F489C08EEF8093E80088C01816D2
:101F30001906CCF381C0813029F440E867E082ECD7
:101F400092E0ECCF833009F077C00E941017DC01DB
:101F50001296ED90FC9013978E010F5F1F4F680152
:101F6000E114F10479F0D701ED91FC910680F7813D
:101F7000E02DB801C7010995080F111DF701E08494
:101F8000F184EECFD8011C92F60101900020E9F710
:101F90003197BF016C197D0940E0C601BFCF60EBEE
:101FA00072E002C06CEA72E0FB01449150E080E80C
:101FB0000E94970BB8CFEE3F2AE0F20751F08081E4
:101FC00091818737A7E79A0721F09093FF0A8093C2
:101FD000FE0A87E797E79183808380916000809372
:101FE000A4019BE088E10FB6F894A8958093600067
:101FF0000FBE9093600097CF80819181873797477C
:1020000009F091CFA895809160008861809360006D
:102010008091A40180936000EE3FBAE0FB0739F0A5
:102020008091FE0A9091FF0A918380837CCF109269
:10203000FF0A1092FE0A77CF81E28093EB006C9644
:102040000FB6F894DEBF0FBECDBFDF91CF91FF91E9
:10205000EF91BF91AF919F918F917F916F915F9120
:102060004F913F912F911F910F91FF90EF90DF9033
:10207000CF900F900FBE0F901F9018951F920F9248
:102080000FB60F9211242F933F934F935F936F934B
:102090007F938F939F93AF93BF93EF93FF9380EBC7
:1020A00091E00E943C0CFF91EF91BF91AF919F9105
:1020B0008F917F916F915F914F913F912F910F90F1
:1020C0000FBE0F901F9018951F920F920FB60F9290
:1020D00011242F938F939F93EF93FF93E091C0016F
:1020E000F091C1018081E091C601F091C70182FDAC
:1020F00012C090818091C9018F5F8F732091CA01B6
:10210000821751F0E091C901F0E0E055FE4F958F44
:102110008093C90101C08081FF91EF919F918F91C0
:102120002F910F900FBE0F901F9018958230910540
:1021300038F0880F991F880F991F05970197F1F7BD
:1021400008958F929F92AF92BF92CF92DF92EF92BB
:10215000FF926B017C010E948B114B015C01C11449
:10216000D104E104F104F1F00E948B11DC01CB01F8
:1021700088199909AA09BB09883E9340A105B105B0
:1021800070F321E0C21AD108E108F10888EE880E48
:1021900083E0981EA11CB11CC114D104E104F10418
:1021A00019F7DDCFFF90EF90DF90CF90BF90AF9009
:1021B0009F908F9008958F929F92AF92BF92CF92EF
:1021C000DF92EF92FF920F931F93CF93DF936C01F7
:1021D0007B018A0180910E01882309F45CC0809103
:1021E000AF01882309F457C080914E0180FF05C0DC
:1021F0008091E00082608093E000E801B12C8AEFDA
:10220000A82E93E0892E2AE3922E209711F4BB206A
:10221000D9F10E94FF1681110AC0AA94AA20D9F10F
:1022200061E070E080E090E00E94A110EECF282FE6
:1022300030E0C217D3070CF48C2F9FB7F89480922C
:10224000E9002091E80025FF1DC0282F30E0C21BC7
:10225000D30BF701815020F041914093F100FACF68
:10226000E20EF31EBB2019F09092E8000AC08091A4
:10227000E80085FD07C09092E800BB24B394209746
:1022800009F0B12C9FBFC1CF5D9884E68093A50172
:102290001016110644F081E090E0F60193838283EA
:1022A00080E090E001C0C801DF91CF911F910F91B4
:1022B000FF90EF90DF90CF90BF90AF909F908F9066
:1022C000089580EB91E00C94040C682F80EB91E072
:1022D0000E945D0C80E090E008958DE492E00C9403
:1022E000700D682F8DE492E00E94D50C80E090E0A4
:1022F0000895CF93C3E00E949C03882351F0C150FE
:1023000019F40E943E07FDCF0E9452070E948105EA
:10231000F2CFCF9108953FB7F8948091AA019091A0
:10232000AB01A091AC01B091AD0126B5A89B05C051
:102330002F3F19F00196A11DB11D3FBFBA2FA92F44
:10234000982F8827820F911DA11DB11DBC01CD01C1
:1023500042E0660F771F881F991F4A95D1F70895AD
:102360001F920F920FB60F9211242F933F938F93CA
:102370009F93AF93BF938091620190916301A0916D
:102380006401B09165013091A90123E0230F2D373D
:1023900020F40196A11DB11D05C026E8230F029669
:1023A000A11DB11D2093A901809362019093630147
:1023B000A0936401B09365018091AA019091AB0153
:1023C000A091AC01B091AD010196A11DB11D80930A
:1023D000AA019093AB01A093AC01B093AD01BF9162
:1023E000AF919F918F913F912F910F900FBE0F90C2
:1023F0001F9018950E944E0581600C94DB050E9489
:102400004E058E7F0C94DB05CF93DF93EC0197FF95
:1024100007C0D195C195D1090E944E058D7F03C09B
:102420000E944E0582600E94DB05CE01DF91CF91B4
:102430000895CF93DF93EC0197FF07C0D195C19525
:10244000D1090E944E058B7F03C00E944E05846017
:102450000E94DB05CE01DF91CF9108954F925F92EC
:102460006F927F928F929F92AF92BF92CF92DF92A4
:10247000EF92FF920F931F93CF93DF93EB010E9494
:1024800019124C01CE010E940412EC01892BC9F0F3
:10249000B401092C000C880B990B0E94BE286B011B
:1024A0007C01BE010D2E000C880B990B0E94BE28EA
:1024B0009B01AC01C701B6010E944A282B013C01D7
:1024C00006C0412C512C80E8682E8FE3782E5E01E7
:1024D0008AEFA81AB10804EC19E0C12CD12C7601BE
:1024E000209729F48114910409F05FC06DC020E0A9
:1024F00030E040E85FE3C701B6010E944A2987FD4A
:1025000004C0181419040CF45E9A1C161D060CF471
:102510005C9A000020E030E040E85FE3C701B601CC
:102520000E944A2987FD07C01814190424F45E98F4
:1025300081E0881A91081C161D0614F45C982197F6
:10254000000020E030E040E85FE3C701B6010E94F0
:102550004A2987FD0AC020E030E040E85FE3C70178
:10256000B6010E94DD276B017C01A3019201C70126
:10257000B6010E94DE276B017C01C8010E94961003
:10258000053883E0180754F0AC16BD0614F40A5061
:102590001109043C89E018070CF0A2CFCA3FD1050D
:1025A0000CF09ECF065F1F4F9BCF20E030E040E84D
:1025B0005FE3C701B6010E944A2987FDAACF18141C
:1025C00019040CF4A1CFA5CFDF91CF911F910F91EA
:1025D000FF90EF90DF90CF90BF90AF909F908F9043
:1025E0007F906F905F904F90089560E070E089ED6C
:1025F00090E00E942E121092A7010895CF92DF92D0
:10260000EF92FF920F931F93CF93DF9380E00E948E
:102610001B0560E070E086EF9FEF0E941A1662E3F0
:1026200070E080E090E00E94A11001E010E0E12C59
:10263000F12CC0E0D0E05BE8C52EDD24D39460E04F
:1026400070E081E090E00E941A16C6010197F1F750
:1026500080E00E94D9032196093E83E0180751F0DB
:10266000C536D1056CF4003D87E01807F9F00F5F1F
:102670001F4FE5CF8FEFE81AF80AC536D105BCF336
:1026800081E090E09701220F331F02C0880F991F4D
:102690002A95E2F70E94F205C93CD10524F380E0B7
:1026A00090E00E94F205C0E0D0E0DDCF60E070E095
:1026B0008EE79FEF0E941A16809100010E941B0571
:1026C00064EF71E080E090E00E94A11060E070E0B3
:1026D00087E29FEF0E942E1281E08093A701DF9195
:1026E000CF911F910F91FF90EF90DF90CF900895C1
:1026F000AF92BF92CF92DF92EF92FF920F931F9310
:10270000CF93DF930E94FE120E947516019701F588
:102710000E9454038130C1F30E947516019719F489
:102720000E94ED0AF5CF85E591E00E94F2056CE28A
:1027300071E080E090E00E94A11080E090E00E94B3
:10274000F2056CE271E080E090E00E94A110E0CF21
:1027500080E00E941B0502E81FEF62E0C62ED12C2C
:10276000C0E0D0E0B80180E090E00E941A1662E379
:1027700070E080E090E00E94A110AA24A394B12C04
:10278000E12CF12C61E070E080E090E00E941A16EC
:1027900081E00E94D90321E1E216F10410F00597CF
:1027A00080F1219688EBE8168BE0F80669F42FEFAC
:1027B000C21AD20AC536D10554F42FEFE21AF20A32
:1027C0008FEFA81AB80ADECFC536D105ACF081E08C
:1027D00090E09601220F331F02C0880F991F2A959F
:1027E000E2F70E94F205C93CD10534F080E090E0A8
:1027F0000E94F205C0E0D0E080EAA8168FE0B8069B
:10280000E1F60E5E1F4F09F0ADCF6CE871EF80E08E
:1028100090E00E941A16809100010E941B0564EF4F
:1028200071E080E090E00E94A11085E591E00E94B7
:10283000F20580E090E00E94F2058091670190919E
:10284000680124E030E0281B390B220F331F81E0A0
:1028500090E002C0880F991F2A95E2F7DF91CF918F
:102860001F910F91FF90EF90DF90CF90BF90AF90AE
:102870000C94F2052C9A00002C98000008951F93E8
:10288000CF93DF938EE293E00E94A7278F5FC82F3C
:10289000D0E0DC2FCC278FE293E00E94A727182FEF
:1028A00080E393E00E94A7271F3F11F4882339F0AB
:1028B000811718F481E0810F03C08F5F01C081E0B0
:1028C0009E01280F311DC901DF91CF911F910895FD
:1028D000FC018081813039F020F0823031F01082AB
:1028E000089581E003C082E001C083E08083089501
:1028F000CF93DF938BE090E00E94A727D82F8CE046
:1029000090E00E94A727C82FD81759F08DE090E0DB
:102910000E94A727D81721F0C81719F0CFEF01C0E0
:10292000CD2F8C2FDF91CF9108950F931F93CF93CD
:10293000DF930E947814813011F128F0823019F071
:102940008330B1F51CC0C0E0D0E0082F10E0CE010C
:102950000E960E94A72790E034E0959587953A95CA
:10296000E1F70817190719F0CE01019723C0219646
:10297000C03283E0D80759F78FE193E01BC0CFE165
:10298000D3E0082F10E0CE010E960E94A72790E01A
:1029900024E0959587952A95E1F70817190719F00E
:1029A000CE01019607C0219770F780E090E002C049
:1029B0008FEF9FEFDF91CF911F910F910895CF93EC
:1029C000C82F682F8BE090E00E94B5276C2F8CE019
:1029D00090E00E94B5276C2F8DE090E00E94B52713
:1029E0000E94781491E0C81390E0892FCF91089548
:1029F000CF93DF938091670190916801853018F043
:102A000084EC92E21EC09927880F991F01960E94BC
:102A1000AF27EC01CF3F8FEFD80761F480E090E063
:102A20000E94A727893C30F42AE0829FE00111240C
:102A3000C452D14ECE01845F9A418D38934200F743
:102A4000CE01DF91CF910895CF93DF93C0E0D0E026
:102A50006FEFCE010E94B5272196CF3F83E0D807C4
:102A6000B9F76FEF8FEF93E0DF91CF910C94B5271B
:102A7000DF92EF92FF920F931F93CF93DF930E9409
:102A8000F8148C01045B1B4F7C0128ECE21AF1085E
:102A90000E94FA11D12CC0EDD7E010161106D4F522
:102AA0000E943A1401501109083725E0120734F446
:102AB000C03787E1D8075CF4239604C0083027E0CC
:102AC00012072CF4C43C89E0D8070CF422960E15AA
:102AD0001F059CF4093823E112077CF0C73282E01D
:102AE000D80714F0219704C0CB3421E0D2072CF092
:102AF00080910001813009F42197CE010E94961047
:102B00000E947516892B21F083E68D1530F602C0E0
:102B1000D394FACFDF91CF911F910F91FF90EF9057
:102B2000DF90089510920F018091A701811109C0D3
:102B300060E070E087E29FEF0E942E1281E08093B8
:102B4000A7010C94791181E080930F018091A70176
:102B500081110E94F5120C9479119F92AF92BF924D
:102B6000CF92DF92EF92FF920F931F93CF93DF9359
:102B7000A82E962E8091A801811109C00E94781379
:102B80001092A6011092600181E08093A80183E079
:102B9000B82EC92DD0E007E41DEFEA2CF12C93E606
:102BA000C92EDD24D3948091A60190E08C1B9D0B4F
:102BB000809FB001819F700D909F700D11248091B6
:102BC000600190E08E199F099C012C9DC0012D9DF4
:102BD000900D3C9D900D11240E942E12A092600138
:102BE0009092A6010E949C03882359F0BA94B110D8
:102BF00003C00E943E07FDCF0E9452070E94B3050A
:102C0000D2CFDF91CF911F910F91FF90EF90DF9086
:102C1000CF90BF90AF909F900895682F0C94AD1502
:102C200040E060E0823019F480E00C94430480E0DE
:102C30000C94F3039F92AF92BF92CF92DF92EF92E8
:102C4000FF920F931F93CF93DF938B010E94191272
:102C5000EC01C8010E9404128C010E94FF1182E362
:102C6000E82EF12C9BE9C92E9FE0D92E2BE7A22E4E
:102C70002CE0B22E3AE0932E1C161D060CF45E9A40
:102C8000101611060CF45C9A00001C161D062CF49C
:102C90005E982197C6010197F1F71016110634F4DA
:102CA0005C9801501109C5010197F1F700001E144D
:102CB0001F0454F49E9CC0019F9C900D11240E94FF
:102CC000961081E0E81AF10801151105A9F6209780
:102CD00099F6DF91CF911F910F91FF90EF90DF90C8
:102CE000CF90BF90AF909F900895EAE5F3E04491B4
:102CF000EBE3F3E09491ECE1F3E08491882309F4B1
:102D00004DC04423E1F150E0FA013197EF30F10575
:102D1000B0F5EA5AFF4F0C947329209180002F7769
:102D200007C0209180002F7D03C020918000277F65
:102D30002093800024C024B52F7702C024B52F7DB6
:102D400024BD1DC0209190002F7707C020919000D6
:102D50002F7D03C020919000277F209390000FC00B
:102D60002091C0002F7703C02091C0002F7D2093B9
:102D7000C00005C02091C200277F2093C200E82F29
:102D8000F0E0EE0FFF1FE550FD4FA591B491EC91DF
:102D9000E92381E090E021F480E0089580E090E074
:102DA00008952091AF01211103C08FEF9FEF089587
:102DB0005FB7F89422E02093E9002091F20030E020
:102DC0001216130614F421E030E0422FFC0184E6D1
:102DD000415038F028988093AE019091F100919382
:102DE000F7CF2115310521F08091F200882319F0E9
:102DF0005FBFC90108958BE68093E800F9CF2FB734
:102E0000F89483E08093E9009091E800892F807224
:102E100095FF04C09091F20080E4891B2FBF0895B4
:102E20008091A10281110DC082E080939D0284E017
:102E300080939E021092A00210929F0281E08093E4
:102E4000A1028DE992E00895A0E1B0E0EAE2F7E1A5
:102E50000C9499227C011B016A01FC0117821682E5
:102E6000838181FF44C39E012F5F3F4F3901F701EA
:102E70009381F10193FD859193FF81911F01882337
:102E800009F431C3853239F493FD859193FF819123
:102E90001F01853239F4B70190E00E9417245601D2
:102EA0006501E5CF10E0512C912CFFE1F915D8F028
:102EB0008B3279F038F4803279F08332A1F4F92D35
:102EC000F0612EC08D3261F0803369F4292D2160CC
:102ED0002DC0392D3260932E892D8460982E2AC002
:102EE000E92DE86015C097FC2DC020ED280F2A3091
:102EF00088F496FE06C03AE0139F200D1124122F8D
:102F000019C08AE0589E200D1124522EE92DE0624E
:102F10009E2E10C08E3231F496FCE5C2F92DF0647D
:102F20009F2E08C08C3621F4292D2068922E02C0D5
:102F3000883641F4F10193FD859193FF81911F0142
:102F40008111B3CF9BEB980F933020F4992D9061B2
:102F5000805E07C09BE9980F933008F066C1992DF9
:102F60009F7E96FF16E09F73992E853619F4906424
:102F7000992E08C0863621F4392F3068932E02C06E
:102F80001111115097FE07C01C3350F44424439490
:102F9000410E27E00BC0183038F027E017E005C0DD
:102FA00027E09CE3492E02C0212F412C560184E0EA
:102FB000A80EB11CF6016081718182819381042D7C
:102FC000A3010E94D0226C01F981FC87F0FF02C0AE
:102FD000F3FF06C091FC06C092FE06C000E205C0E9
:102FE0000DE203C00BE201C000E08C858C7019F08B
:102FF00001115AC29BC297FE10C04C0CFC85F4FF15
:1030000004C08A81813309F44A94141474F528E0C9
:10301000241578F588E0482E2CC096FC2AC0812F14
:1030200090E08C159D059CF03CEFC3163FEFD30656
:1030300074F0892D8068982E0AC0E2E0F0E0EC0F71
:10304000FD1FE10FF11D8081803319F41150111122
:10305000F4CF97FE0EC044244394410E812F90E09C
:10306000C816D9062CF41C1904C04424439401C08A
:1030700010E097FE06C01C141D0434F4C60101962E
:1030800005C085E090E002C081E090E0011101966A
:10309000112331F0212F30E02F5F3F4F820F931F1C
:1030A000252D30E08217930714F4581A01C0512CD3
:1030B000892D897049F4552039F0B70180E290E0FC
:1030C0000E9417245A94F7CF002329F0B701802FCC
:1030D00090E00E94172493FC09C0552039F0B701F5
:1030E00080E390E00E9417245A94F7CF97FE4CC0DB
:1030F0004601D7FE02C0812C912CC601881999097E
:10310000F301E80FF91FFE87ED87960124193109B5
:10311000388B2F87012F10E01195019511093FEF92
:103120008316930629F4B7018EE290E00E941724DB
:10313000C814D9044CF08F8598898815990524F412
:10314000ED85FE85818101C080E3F1E08F1A910851
:103150002D853E852F5F3F4F3E872D878016910638
:103160002CF0B70190E00E941724D9CFC814D904DD
:1031700041F49A81963320F4953319F43C8534FF59
:1031800081E3B70190E04EC08A81813319F09C85BC
:103190009F7E9C87B70190E00E941724111105C003
:1031A00094FC18C085E690E017C0B7018EE290E06D
:1031B0000E9417241E5F82E001E0080FF301E80F70
:1031C000F11D8081B70190E00E941724802F011328
:1031D000F3CFE6CF85E490E0B7010E941724D7FC37
:1031E00006C0C114D10441F4EC85E4FF05C0D194BC
:1031F000C194D1088DE201C08BE2B70190E00E943A
:10320000172480E32AE0C216D1042CF08F5FFAE085
:10321000CF1AD108F7CFB70190E00E941724B70169
:10322000C601C0960E94172454C1833631F08337FB
:1032300079F0833509F056C020C0560132E0A30E64
:10324000B11CF6018081898301E010E0630112C0A6
:103250005601F2E0AF0EB11CF601C080D18096FE9F
:1032600003C0612F70E002C06FEF7FEFC6010E94C4
:10327000B3238C01F92DFF7714C0560122E0A20E72
:10328000B11CF601C080D18096FE03C0612F70E0B2
:1032900002C06FEF7FEFC6010E94A8238C01F92DB9
:1032A000F0689F2EF3FD1AC0852D90E008171907CE
:1032B000A8F4B70180E290E00E9417245A94F4CF5A
:1032C000F60197FC859197FE81916F01B70190E01F
:1032D0000E94172451105A9401501109011511052B
:1032E00079F7F7C0843611F0893661F5560197FEFB
:1032F00009C024E0A20EB11CF601608171818281B7
:1033000093810AC0F2E0AF0EB11CF60160817181B9
:10331000072E000C880B990BF92DFF769F2E97FF37
:1033200009C090958095709561957F4F8F4F9F4F05
:10333000F0689F2E2AE030E0A3010E946C24C82E82
:10334000C6183FC0092D853721F40F7E2AE030E0F2
:103350001DC0097F8F3691F018F4883559F0C3C02D
:10336000803719F0883711F0BEC0006104FF09C032
:10337000046007C094FE08C0066006C028E030E084
:1033800005C020E130E002C020E132E0560107FF35
:1033900009C084E0A80EB11CF601608171818281B0
:1033A000938108C0F2E0AF0EB11CF601608171811B
:1033B00080E090E0A3010E946C24C82EC6180F770D
:1033C000902E96FE0BC0092D0E7FC11650F494FE70
:1033D0000AC092FC08C0092D0E7E05C0DC2C092D08
:1033E00003C0DC2C01C0D12E04FF0DC0FE01EC0D8A
:1033F000F11D8081803311F4097E09C002FF06C0EF
:10340000D394D39404C0802F867809F0D39403FD1D
:1034100011C000FF06C01C2DD51480F4150D1D1918
:103420000DC0D51458F4B70180E290E00E94172433
:10343000D394F7CFD51410F45D1801C0512C04FFBC
:1034400010C0B70180E390E00E94172402FF17C06C
:1034500001FD03C088E790E002C088E590E0B70175
:103460000CC0802F867859F001FF02C08BE201C0AA
:1034700080E207FD8DE2B70190E00E941724C1169B
:1034800038F4B70180E390E00E9417241150F7CF81
:10349000CA94F301EC0DF11D8081B70190E00E9408
:1034A0001724C110F5CF15C0F4E0F51560F584E0E0
:1034B000581A93FE1FC0011127C02C8523FF2AC074
:1034C0000AEC10E0392D3071932EF80184918111AE
:1034D00024C0552009F4E4CCB70180E290E00E94BA
:1034E00017245A94F6CFF7018681978126C08FEF73
:1034F0009FEF23C0B70180E290E00E9417245A9406
:103500005110F8CFD8CF512CB701802F90E00E94F6
:103510001724D3CF0EEC10E0D5CF91108052B70115
:1035200090E00E9417240F5F1F4FCFCF23E0251597
:1035300010F483E0BDCF512CC0CF6096E2E10C9433
:10354000B522CF93C0E00E948F03813079F08230A2
:10355000D9F40E94B305809167010E940D1681E0A5
:103560000E944206882379F3C1E0EDCFC11114C057
:103570000E94B305809167010E940D1681E00E94B0
:103580004206811109C0DFCFCC2319F00E94CA087E
:10359000DACF0E940F09D7CF809167010E940D16E4
:1035A000CF910C94A315CF93DF9300D000D000D01F
:1035B000CDB7DEB7789484B5826084BD84B5816070
:1035C00084BD85B5826085BD85B5816085BD8091EE
:1035D0006E00816080936E00109281008091810066
:1035E000826080938100809181008160809381005E
:1035F0008091800081608093800080919100826042
:1036000080939100809191008160809391008091DE
:1036100090008160809390008091C10084608093CD
:10362000C1008091C10082608093C1008091C1007F
:1036300081608093C1008091C30081608093C3004A
:103640008091C00082608093C0008091C200816040
:103650008093C20080917A00846080937A00809188
:103660007A00826080937A0080917A0081608093F2
:103670007A0080917A00806880937A001092AF017E
:1036800010924F0110924E018091D700816080937B
:10369000D70080EA8093D80089B5806189BD89B55B
:1036A000826089BD09B400FEFDCF61E070E080E07A
:1036B00090E00E94A1108091D8008F7C806180935F
:1036C000D8008091E000807F8093E0008091E1004D
:1036D0008E7E8093E1008DE08093E200559A209ADF
:1036E0008FEF93E00E94A7278F3F11F00E942415CF
:1036F0003F9A269A259A47982E982D9810925F0106
:1037000010925E0180E090E00E94630580915E016E
:1037100090915F010E94630580E090E00E94010BA0
:103720008FEF9FEF90935A02809359020BE611E0BE
:1037300081E791E190937401809373018DE691E1AB
:10374000909376018093750193E090936E011092AF
:10375000780110927701E091C001F091C10182E0FF
:103760008083E091BC01F091BD011082E091BE0127
:10377000F091BF0180E180831092C801E091C40103
:10378000F091C5018EE08083E091C201F091C30108
:10379000808180618083E091C201F091C3018081CA
:1037A00088608083E091C201F091C30180818068CC
:1037B0008083E091C201F091C30180818F7D80837D
:1037C000F0E5EF2EF1E0FF2E25E631E130935901CF
:1037D0002093580121E631E130935B0120935A0197
:1037E0009093530110925D0110925C0181E090E092
:1037F0000E94010B1093AA020093A9021093AC023D
:103800000093AB0284EE91E09F938F93FF92EF922F
:103810000E94FC2384B1817F84B984B1866084B91D
:1038200082E090E00E94010B83E090E00E94010B97
:1038300010926A011092690180917A0087608093EA
:103840007A0080917C00806480937C0080917A0073
:10385000806880937A0080E280937E0010927D00E1
:1038600084E090E00E94010B80915E0190915F01E5
:10387000857D0E94630580E090E00E94F2050E9431
:1038800054030F900F900F900F90823031F481E02D
:1038900090E090939F0180939E0180E00E941B0521
:1038A0000E949C030E949514803223E09207C0F48A
:1038B0000E960E94A727182F082F0F70053080F44E
:1038C0000E947814843060F4212F30E0E4E03595D4
:1038D0002795EA95E1F790E02817390709F452C5D2
:1038E0000E947516019719F481E0809366018E019C
:1038F0000D5F1F4F59E7E52E51E0F52E6BE6A62E22
:1039000067E1B62E7BEB272E72E1372E809199016D
:1039100090919A018097F4F480E591E00E94BE2393
:1039200097FD1EC08D30910519F08A30910511F474
:1039300080E090E02091990130919A01A9014F5FB8
:103940005F4F50939A0140939901F901E758FE4F58
:10395000808306C010929A01109299018FEF9FEF19
:103960001C821B821A8219822091990130919A013E
:10397000121613060CF028C3892B09F025C31092E8
:103980009A01109299011F930F934EE552E05F93B5
:103990004F93FF92EF920E9453240F900F900F903D
:1039A0000F900F900F90181619060CF05EC0CB8088
:1039B000DC8095E0C916D10408F006C382E090E0EF
:1039C00090939F0180939E014091670150916801FF
:1039D00024E030E0241B350B220F331F02C0880F78
:1039E000991F2A95E2F70E94F205D0926801C092D1
:1039F00067018091660181110E947D0780916701B6
:103A00000E940D16809167019091680124E030E0DA
:103A1000281B390B220F331F82E090E002C0880F71
:103A2000991F2A95E2F70E94F205809166018111A3
:103A300002C00E94320980E090E00E94F20580916D
:103A400067019091680124E030E0281B390B220FB8
:103A5000331F81E090E002C0880F991F2A95E2F79A
:103A60000E94F2058AE592E0A3C21F930F9326E518
:103A700032E03F932F93FF92EF920E9453240F90D6
:103A80000F900F900F900F900F9018161906CCF40E
:103A90008B819C818530910508F096C2209166014A
:103AA000222339F083E090E090939F0180939E0160
:103AB00005C00E94060680E00E94420682E592E070
:103AC00077C21F930F938EE492E09F938F93FF92A0
:103AD000EF920E9453240F900F900F900F900F9031
:103AE0000F90181619069CF48B819C81009729F081
:103AF000019709F069C282E001C081E08093000172
:103B0000809100010E941B058AE492E051C21F933C
:103B10000F9386E492E09F938F93FF92EF920E941F
:103B200053240F900F900F900F900F900F90181636
:103B300019062CF40E947D0782E492E09CC11F9339
:103B40000F938EE392E09F938F93FF92EF920E94E8
:103B500053240F900F900F900F900F900F90181606
:103B6000190684F48B819C81892B09F02DC298E081
:103B700088E10FB6F894A895809360000FBE9093EB
:103B8000600022C21F930F938AE392E09F938F936A
:103B9000FF92EF920E9453240F900F900F900F907E
:103BA0000F900F901816190664F48B819C81892B55
:103BB00009F00AC20E9475169F938F9384E392E0E6
:103BC00022C01F930F9380E392E09F938F93FF9205
:103BD000EF920E9453240F900F900F900F900F9030
:103BE0000F901816190694F58B819C81009719F493
:103BF0008CE292E0DDC181309105A1F41F928AE64A
:103C00008F9386E292E09F938F9380E591E09F935C
:103C10008F930E94FC230F900F900F900F900F90A6
:103C20000F90D2C18230910539F481E08F9381E702
:103C30008F9380E292E0E7CF039709F0C5C10E941D
:103C40003F149F938F938AE192E0DDCF81E090E073
:103C50008C0F9D1F9F938F931F930F9383E192E08F
:103C60009F938F93FF92EF920E9453240FB6F89484
:103C7000DEBF0FBECDBF181619066CF48B819C8178
:103C8000059708F0A1C189819A81039708F09CC12A
:103C90008FE092E08DC11F930F938BE092E09F9392
:103CA0008F93FF92EF920E9453240F900F900F90EA
:103CB0000F900F900F90181619060CF046C08B81CC
:103CC0009C81892B09F080C10E94A3150E94FF11DD
:103CD0006091000180E00E949504B2E0CB2EB3E039
:103CE000DB2E88E29AE0A0E0B0E00E9496100E94ED
:103CF0008B112B013C0180E591E00E94BE238134B1
:103D0000910521F481E08093610116C00E943A146C
:103D10000E948B1138E2430E3AE0531E611C711C65
:103D2000A3019201261B370B480B590BDA01C9017D
:103D300031E0C31AD108C9F6809100010E94101623
:103D40000E94921587E092E033C11F930F9383E0A6
:103D500092E09F938F93FF92EF920E9453240F90D3
:103D60000F900F900F900F900F90181619060CF0EF
:103D700048C0CB80DC8045E0C416D10408F024C1E3
:103D8000D0926801C092670152E05C1510F4912C4A
:103D900002C0A4E09A2E8091660181110E947D07E5
:103DA0006091000180E00E949504692D8C2D0E9495
:103DB000AD150E94A3150E94FF11F2EECF2EF4E084
:103DC000DF2E0E943A14C5010197F1F781E0C81A6D
:103DD000D108B9F70E949215809100010E94101637
:103DE0008FEF91E09F938F9380E591E09F938F9366
:103DF0000E94FC2382E090E090939F0180939E01BB
:103E0000DFC01F930F938BEF91E09F938F93FF92EF
:103E1000EF920E9453240F900F900F900F900F90ED
:103E20000F9018161906A4F58B819C81892B09F037
:103E3000CBC06091000180E00E9495040E94A31510
:103E40000E94FA11E2EECE2EE4E0DE2E0E943A1439
:103E5000C5010197F1F791E0C91AD108B9F70E949D
:103E60009215809167010E940D16809100010E94B9
:103E7000101687EF91E09F938F9380E591E09F93D9
:103E80008F930E94FC2310929F0110929E0198C074
:103E90001F930F9383EF91E09F938F93FF92EF9285
:103EA0000E9453240F900F900F900F900F900F903F
:103EB0001816190664F48B819C81892B09F084C043
:103EC00084E090E090939F0180939E017DC01F93BA
:103ED0000F938FEE91E09F938F93FF92EF920E944A
:103EE00053240F900F900F900F900F900F90181673
:103EF00019060CF069C0CB80DC8025E0C216D10425
:103F000008F062C0D0926801C0926701809166019A
:103F100081110E947D076C2D8C2D0E94AD1581E0D2
:103F20000E944206811102C00E94A11A6091000104
:103F300080E00E94950461E06C0D8C2D0E94AD150F
:103F40000E94A3150E94FF117EE5872E9924939469
:103F50000E943A14C5010197F1F731E0831A9108E4
:103F6000B9F760E08C2D0E94AD150E94FA116BE448
:103F7000862E912C0E943A14C5010197F1F741E079
:103F8000841A9108B9F765E08C2D0E94AD1560E0A8
:103F90008C2D0E94AD156C2D8C2D0E94AD1581E0ED
:103FA0000E944206811102C00E94A11A8BEE91E08C
:103FB0009F938F9380E591E09F938F930E94FC23C2
:103FC0000F900F900F900F9080919E0190919F0104
:103FD0008330910509F47DC134F4009709F483C15D
:103FE000019749F0CCC18430910509F48DC1059742
:103FF00009F4A0C1C4C180910201882301F180E0CD
:1040000090E00E94F20568EC70E080E090E00E9491
:10401000A1108AEA92E00E94F20560EB74E080E071
:1040200090E00E94A11080E090E00E94F20568E517
:1040300072E080E090E00E94A11010920201809155
:104040009D01882309F4D6C00E94E6060E9454030D
:10405000823009F094C1C0906701D090680124E0DB
:1040600030E02C193D09220F331F82E090E002C09E
:10407000880F991F2A95E2F70E94F20564EF71E01C
:1040800080E090E00E94A1100E945403823009F069
:1040900076C18C2D0E940D1680906701909068016A
:1040A00055E0851691040CF0A0C080916601811145
:1040B00066C18E820E94F8146C010E9432094EE1A2
:1040C00061E080E00E94F3038FB7F89440906201B2
:1040D0005090630160906401709065018FBF1D82F4
:1040E0000E945403813019F08430D9F034C08D819E
:1040F000882309F458C12FB7F894809162019091F8
:104100006301A0916401B09165012FBF84199509E5
:10411000A609B709893E9340A105B10508F043C13E
:104120003AC08D81882309F448C12FB7F894809153
:10413000620190916301A0916401B09165012FBF6C
:1041400084199509A609B709893E9340A105B105CF
:1041500008F033C120C08FB7F894409062015090AE
:10416000630160906401709065018FBF1D8213C070
:104170000E94FA114AE04D83C1010197F1F70E94B4
:104180003A143D8131503D833111F6CF4AE0C41AD3
:10419000D10851E05D8380E091E00E94F2056AE081
:1041A00070E080E090E00E94A11080E092E00E9428
:1041B000F2056AE070E080E090E00E94A11088E0E3
:1041C00090E00E94F20562E370E080E090E00E94DF
:1041D000A1100E945403823009F082CF0E947D0713
:1041E0002E81253008F404C1CAC080E090E00E940E
:1041F000060607C180E091E00E94F20561E070E0F0
:1042000080E090E00E94A11080E092E00E94F20520
:1042100061E070E080E090E00E94A110C0909B01FE
:10422000D0909C019601220F331F82E090E002C0E3
:10423000880F991F2A95E2F70E94F20561E070E06D
:1042400080E090E00E94A1100E945403823069F047
:10425000843061F1813009F092C01C141D040CF00F
:104260008EC031E0C31AD10829C042E0C416D1047F
:1042700099F044F4CA94CD2809F081C081E080937C
:104280009D017DC093E0C916D10469F024E0C216F7
:10429000D10409F4B6C073C08091010181116FC0CF
:1042A0000E942415AEC01092010169C034E0C3160B
:1042B000D1040CF064C04FEFC41AD40AD0929C0110
:1042C000C0929B0160E273E080E090E00E94A11048
:1042D00056C00E947516019719F40E94ED0A4FC04E
:1042E00010926601C3C00E94E6060E945403823009
:1042F00009F045C0C0906701D090680155E0C5162F
:10430000D1040CF4B8C03BC00E940F090E948F0377
:10431000813049F0823099F50E940705882379F1B0
:1043200085E090E015C010929F0110929E0186E6F4
:1043300092E019C00E94CA080E948F03813069F080
:104340008230E9F40E940705811119C084E090E0F1
:1043500090939F0180939E0112C010929F01109232
:104360009E0182E692E09F938F9380E591E09F9378
:104370008F930E94FC230F900F900F900F900E943C
:10438000CB0CC4CA0E94FE1260E070E08DE99EEF83
:104390009C01029FC001039F900D11240E942E12C8
:1043A000009360019DCAC6018E5F9A418D38934289
:1043B00008F4DECE81E08D83EECEC6018A5E9A419E
:1043C0008D38934218F091E09D83E5CE0E94FF1155
:1043D0008AE08D83C1010197F1F70E943A143D8173
:1043E00031503D833111F6CF4AE0C40ED11CD1CEFD
:1043F000C4019927880F991FB60101960E94C7270B
:10440000BECF80E090E00E94F20560E971E080E0BC
:1044100090E00E94A1108AEA92E00E94F20560E911
:1044200071E080E090E00E94A11080E090E00E94A6
:10443000F20560E971E080E090E00E94A11080E068
:1044400090E00E94F205809167019091680124E05C
:1044500030E0281B390B220F331F81E090E002C0AF
:10446000880F991F2A95E2F70E94F20510929F018A
:1044700010929E0184CF24E030E02C193D09220FD8
:10448000331F82E090E002C0880F991F2A95E2F75F
:104490000E94F20564EF71E080E090E00E94A110BC
:1044A0000E945403823009F06ACF8C2D0E940D16B1
:1044B00080E00E94420663CFE0EBF1E013821282BB
:1044C00088EE93E0A0E0B0E084839583A683B78371
:1044D0002DE231E0318320832DEC30E035872487D5
:1044E0002CEC30E03787268728EC30E0318B208BAE
:1044F00029EC30E0338B228B2AEC30E0358B248B97
:104500002EEC30E0378B268B118E128E138E148E8C
:10451000EDE4F2E01382128284839583A683B7834D
:104520008FE391E0918380838FEF9FEF958784875E
:1045300008952F923F924F925F926F927F928F9247
:104540009F92AF92BF92CF92DF92EF92FF920F9322
:104550001F93CF93DF93CDB7DEB7CA1BDB0B0FB62C
:10456000F894DEBF0FBECDBF09942A8839884888E9
:104570005F846E847D848C849B84AA84B984C8847F
:10458000DF80EE80FD800C811B81AA81B981CE0F76
:10459000D11D0FB6F894DEBF0FBECDBFED0108955B
:1045A000283008F027E03327DA01990F311D87FD05
:1045B000916000966105710539F432602E5F3D937C
:1045C00030E32A95E1F708959F3F30F08038710578
:1045D000610509F03C5F3C5F3D93913008F08068D5
:1045E000911DDF93CF931F930F93FF92EF92192F9B
:1045F000987F9695E92F96959695E90FFF27E45DAC
:10460000FE4F99273327EE24FF24A701E7010590E9
:104610000894079428F4360FE71EF81E491F511D11
:10462000660F771F881F991F0694A1F705900794BE
:1046300028F4E70EF81E491F561FC11D770F881F6B
:10464000991F661F0694A1F70590079428F4F80EA9
:10465000491F561FC71FD11D880F991F661F771F3F
:104660000694A1F70590079420F4490F561FC71F21
:10467000D81F990F661F771F881F0694A9F784918A
:104680001095177041F0D695C79557954795F794B3
:10469000E7941A95C1F7E2EDF0E068941590159152
:1046A00035916591959105907FE27395E118F10A36
:1046B000430B560BC90BD009C0F7E10CF11E431F89
:1046C000561FC91FD01D7EF4703311F48A95E6CFB2
:1046D000E894015030F0080F0AF40027021708F49C
:1046E000202F2395022F7A3328F079E37D932A95A2
:1046F000E9F710C07D932A9589F6069497956795FA
:10470000379517951794E118F10A430B560BC90B0F
:10471000D00998F023957E9173957A3308F070E371
:104720007C932013B8F77E9170617D9330F0839570
:1047300071E37D9370E32A95E1F71124EF90FF90E8
:104740000F911F91CF91DF91992787FD9095089543
:10475000FC010590615070400110D8F7809590954C
:104760008E0F9F1F0895FC01615070400190011051
:10477000D8F7809590958E0F9F1F0895CF93DF9364
:10478000EC012B8120FF33C026FF0AC02F7B2B8337
:104790008E819F8101969F838E838A8190E029C0BC
:1047A00022FF0FC0E881F9818081082E000C990B4F
:1047B000009719F420622B831AC03196F983E8839D
:1047C0000EC0EA85FB85099597FF09C02B810196EC
:1047D00011F080E201C080E1822B8B8308C02E8122
:1047E0003F812F5F3F4F3F832E83992702C08FEF7A
:1047F0009FEFDF91CF910895A0E0B0E0E2E0F4E216
:104800000C94A7220F811885F80183818860838327
:10481000AE01455F5F4F69857A85C8010E94241704
:10482000F8012381277F2383E4E00C94C3220F93B4
:104830001F93CF93DF93FB01238121FD03C08FEFF3
:104840009FEF2CC022FF16C04681578124813581FD
:104850004217530744F4A081B1819D012F5F3F4F60
:10486000318320838C93268137812F5F3F4F37839D
:10487000268314C08B01EC01FB010084F185E02D3F
:104880000995892BE1F6D80116968D919C91179781
:10489000019617969C938E931697CE01DF91CF9138
:1048A0001F910F910895AEE0B0E0E9E5F4E20C94B9
:1048B000A9228DE08C838B899C899A838983AE01A0
:1048C000495E5F4F6D897E89CE0101960E94662602
:1048D0002E96E2E00C94C522FA01AA27283051F165
:1048E000203181F1E8946F936E7F6E5F7F4F8F4F21
:1048F0009F4FAF4FB1E03ED0B4E03CD0670F781F80
:10490000891F9A1FA11D680F791F8A1F911DA11D64
:104910006A0F711D811D911DA11D20D009F468949D
:104920003F912AE0269F11243019305D3193DEF645
:10493000CF010895462F4770405D4193B3E00FD0FB
:10494000C9F7F6CF462F4F70405D4A3318F0495DE6
:1049500031FD4052419302D0A9F7EACFB4E0A695C9
:104960009795879577956795BA95C9F700976105EB
:10497000710508959B01AC010A2E06945795479541
:1049800037952795BA95C9F7620F731F841F951F36
:10499000A01D089520FD09C0FC0123FD05C022FFD4
:1049A00002C07383628351834083089544FD17C01E
:1049B00046FD17C0AB01BC01DA01FB01AA0FBB1F0A
:1049C000EE1FFF1F1094D1F74A0F5B1F6E1F7F1F52
:1049D000CB01BA01660F771F881F991F09C033E00A
:1049E00001C034E0660F771F881F991F3150D1F73F
:1049F000620F711D811D911D08950F931F93CF9319
:104A0000DF938C01C8010E94BE23EC0197FD08C012
:104A10000E947727892BB1F7B801CE010E948B271E
:104A2000CE01DF91CF911F910F9108958F929F92A8
:104A3000AF92BF92EF92FF920F931F93CF93DF93AA
:104A40008C01D62F7A01B22E0E94BE239C013327FF
:104A50002B32310531F02D32310561F48B2D806818
:104A6000B82ED15011F480E068C0C8010E94BE2366
:104A700097FDF9CFCB2DCD7F2B2D207309F58033FA
:104A8000F9F4AA24AA94AD0E09F443C0C8010E9407
:104A9000BE2397FD3EC09C012F7D3327283531056D
:104AA00049F4C264D250A9F1C8010E94BE2397FF05
:104AB00007C02FC0B6FE02C0C26001C0C261DA2DBD
:104AC000812C912C540120ED280F283080F0C4FF58
:104AD00004C0B8010E948B2719C02A3040F0C6FFDD
:104AE000F8CF2F7D3FEE320F363098F727504C2FFE
:104AF000C501B4010E94D6244B015C01C260D150B3
:104B000059F0C8010E94BE2397FFDDCFC1FD04C04C
:104B1000AACF812C912C5401C7FF08C0B094A09457
:104B200090948094811C911CA11CB11C2C2FB50168
:104B3000A401C7010E94CA2481E0DF91CF911F9197
:104B40000F91FF90EF90BF90AF909F908F9008953E
:104B5000A0E2B0E0EEEAF5E20C949C225C01962E15
:104B60007A01F9018E010F5F1F4F680180E2D801C1
:104B70001D928A95E9F7D50113968C9080E090E01C
:104B8000612C712C30E061E070E083FC259183FEA4
:104B900021918F01522E211103C080E090E092C03C
:104BA0002E3511F4009751F1432F50E04817590763
:104BB0003CF42D3559F12D3219F4772009F103C059
:104BC000772009F46AC0452D469546954695D6014D
:104BD000A40FB11D452D47708B0102C0000F111F9E
:104BE0004A95E2F7A8015C91452B4C93651459F066
:104BF000561410F45394E7CF5A94E5CF31E004C033
:104C00007724739401C0712C0196BFCF772019F0DF
:104C10008E8180628E83311103C08824839417C0F3
:104C2000F6019E012F5D3F4F8081809581932E1765
:104C30003F07D1F7F2CFE114F10429F0D7018C93AB
:104C4000F70131967F019A94812C9920F9F0C501E2
:104C50000E94BE2397FD18C0FC01FF2723E0F595B5
:104C6000E7952A95E1F7EC0DFD1D208130E0AC01C0
:104C70004770552702C0359527954A95E2F720FDE4
:104C8000DACFB5010E948B27811087CFE114F104A0
:104C900011F0D7011C92C80115C0422F46954695C8
:104CA0004695D601A40FB11D422F47708B0102C05B
:104CB000000F111F4A95E2F7A8015C91452B4C9318
:104CC000622EA2CFA096EFE00C94B822A0E0B0E054
:104CD000ECE6F6E20C949C226C01EB015A01FC011B
:104CE00017821682512CF601E380FE01E3FC8591C8
:104CF000E3FE8191182FEF01882309F4EEC090E0C4
:104D00000E947727892B21F0C6010E94FD24EBCF5A
:104D1000153241F4FE01E3FC1591E3FE1191EF0120
:104D2000153281F4C6010E94BE2397FDD4C0412FE5
:104D300050E09C01332724173507A9F2B6010E94E1
:104D40008B27CBC01A3239F4E3FC1591E3FE1191A5
:104D5000EF0101E001C000E0F12C20ED210F2A302D
:104D600080F402606F2D70E080E090E040E20E94ED
:104D7000D624F62EFE01E3FC1591E3FE1191EF011E
:104D8000ECCF01FF03C0F11003C0A7C0FF24FA94C9
:104D9000183619F01C3651F010C0FE01E3FC1591D5
:104DA000E3FE1191EF01183641F408600460FE0142
:104DB000E3FC1591E3FE1191EF01112309F48DC07D
:104DC000612F70E08CEC91E00E948027892B09F420
:104DD00084C000FD07C0F50180809180C501029666
:104DE0005C0102C0812C912C1E3651F4F6014681E3
:104DF000578160E070E0202FC4010E94CA2473CF65
:104E00001336A9F401FD02C0FF24F394C6010E94E9
:104E1000BE2397FD60C08114910429F0F4018083C2
:104E2000C40101964C01FA94F110F0CF50C01B352B
:104E300059F49E01A4016F2DC6010E94A825EC0122
:104E4000892B09F044C03EC0C6010E94FD2497FD95
:104E500042C01F3661F128F4143639F1193651F188
:104E600028C0133771F0153701F123C08114910464
:104E700029F0F4016082C40101964C01FA94FF20EC
:104E800071F0C6010E94BE233C0197FD08C00E943C
:104E90007727892B59F3B601C3010E948B27811410
:104EA0009104A9F0F401108212C0006203C00061F5
:104EB00001C00064202FA4016F2DC6010E94162599
:104EC000811105C0F6018381807329F406C000FDBD
:104ED0000ACF539408CF552019F0852D90E002C0D9
:104EE0008FEF9FEFCDB7DEB7EFE00C94B8229111B2
:104EF0000C94A427803219F089508550C8F7089582
:104F0000FC010590061621F00020D9F7C001089594
:104F10003197CF010895FB01238120FF12C026FDA8
:104F200010C08F3F3FEF930761F082832F7D206495
:104F3000238326813781215031093783268399279E
:104F400008958FEF9FEF0895992788270895F9997D
:104F5000FECF92BD81BDF89A992780B50895A8E14A
:104F6000B0E042E050E00C94CF27262FF999FECF15
:104F700092BD81BDF89A019700B4021639F01FBAAC
:104F800020BD0FB6F894FA9AF99A0FBE08950196CB
:104F9000272F0E94B6270C94B527DC01CB01FC011A
:104FA000F999FECF06C0F2BDE1BDF89A319600B482
:104FB0000D9241505040B8F708955058BB27AA278A
:104FC0000E94F5270C9410290E94022938F00E94B3
:104FD000092920F039F49F3F19F426F40C94FF2896
:104FE0000EF4E095E7FB0C94F928E92F0E942129A3
:104FF00058F3BA17620773078407950720F079F40E
:10500000A6F50C9443290EF4E0950B2EBA2FA02D93
:105010000B01B90190010C01CA01A0011124FF2765
:10502000591B99F0593F50F4503E68F11A16F04060
:10503000A22F232F342F4427585FF3CF469537955F
:105040002795A795F0405395C9F77EF41F16BA0B24
:10505000620B730B840BBAF09150A1F0FF0FBB1FD2
:10506000661F771F881FC2F70EC0BA0F621F731F1B
:10507000841F48F4879577956795B795F7959E3F78
:1050800008F0B0CF9395880F08F09927EE0F979509
:10509000879508950E945E280C9410290E94092982
:1050A00058F00E94022940F029F45F3F29F00C9447
:1050B000F92851110C9444290C94FF280E942129AD
:1050C00068F39923B1F3552391F3951B550BBB2737
:1050D000AA2762177307840738F09F5F5F4F220F7C
:1050E000331F441FAA1FA9F335D00E2E3AF0E0E873
:1050F00032D091505040E695001CCAF72BD0FE2FBD
:1051000029D0660F771F881FBB1F26173707480750
:10511000AB07B0E809F0BB0B802DBF01FF27935808
:105120005F4F3AF09E3F510578F00C94F9280C94AB
:1051300044295F3FE4F3983ED4F3869577956795CD
:10514000B795F7959F5FC9F7880F911D969587953D
:1051500097F90895E1E0660F771F881FBB1F62175C
:1051600073078407BA0720F0621B730B840BBA0B1A
:10517000EE1F88F7E0950895E89409C097FB3EF488
:1051800090958095709561957F4F8F4F9F4F992394
:10519000A9F0F92F96E9BB279395F6958795779512
:1051A0006795B795F111F8CFFAF4BB0F11F460FFD2
:1051B0001BC06F5F7F4F8F4F9F4F16C0882311F02A
:1051C00096E911C0772321F09EE8872F762F05C03E
:1051D000662371F096E8862F70E060E02AF09A95D9
:1051E000660F771F881FDAF7880F9695879597F9CE
:1051F000089597F99F6780E870E060E008959FEF59
:1052000080EC089500240A9416161706180609065D
:10521000089500240A94121613061406050608952C
:10522000092E0394000C11F4882352F0BB0F40F4B4
:10523000BF2B11F460FF04C06F5F7F4F8F4F9F4FF4
:10524000089557FD9058440F551F59F05F3F71F076
:105250004795880F97FB991F61F09F3F79F08795DD
:105260000895121613061406551FF2CF4695F1DF66
:1052700008C0161617061806991FF1CF86957105F6
:10528000610508940895E894BB2766277727CB012A
:1052900097F908950E944F2908F48FEF0895990F08
:1052A0000008550FAA0BE0E8FEEF16161706E807F0
:1052B000F907C0F012161306E407F50798F0621B11
:1052C000730B840B950B39F40A2661F0232B242BE6
:1052D000252B21F408950A2609F4A140A6958FEF05
:1052E000811D811D0895EE0FFF1F0590F491E02DA3
:1052F000099481E090E0F8940C947E29F894FFCF13
:10530000010101FFFFFFFF00E100000000000001BC
:105310001E232F23232D010A1601071601231E0524
:10532000060100C18081000000000000005D0CCB80
:105330000BF50BA90C260C040C180C00000000D572
:0E5340000CDB10480DEB0CF60C700D4C0D0044
:00000001FF
